:020000040800F2
:10000000200B0020C90000082D0700082F0700085A
:1000100000000000000000000000000000000000E0
:10002000000000000000000000000000330700088E
:100030000000000000000000350700083707000836
:10004000DB00000800000000DB000008DB00000807
:10005000DB000008DB000008DB000008DB00000814
:1000600000000000DB000008DB000008DB000008E7
:10007000DB000008DB000008DB00000800000000D7
:10008000DB0000080000000000000000DB000008AA
:10009000DB000008DB000008DB000008DB000008D4
:1000A000DB000008DB000008DB000008390700085F
:1000B0007B0700080348854602F06CFB00480047B8
:1000C00069010008200B00200448804704480047CD
:1000D000FEE7FEE7FEE7FEE7FEE7FEE70325000892
:1000E000B5000008002105E0002200E0521C824219
:1000F000FCD3491C1F231B029942F5D37047FE48CD
:100100004078401E4101081AFC494118FA4880789D
:10011000401E085CFA490870F7484078401E4101CB
:10012000081AF8494118F4488078401E085CF649DE
:100130000870F1484078401E4101081AF3494118FF
:10014000ED488078401E085CF1490870EA48407824
:10015000401E4101081AEF494118E7488078401EC7
:10016000085CED49087070470EB500F045FB00F0E3
:100170009EFB00F02DFC01210920C00602F089F849
:1001800087E27D20C000FFF7ADFFDB49002001F0D2
:1001900041FCE249002001F09BFBFFF7B0FFE04883
:1001A000007800287ED0DD480078D549097888425B
:1001B00003DDDA48007808280BDBD8480078D049FE
:1001C000097888421AD1D5484078CF4909788842C1
:1001D00014DBD4480078082810D0D34800780028D1
:1001E00004D10521D14800F09BFD03E00821CF4850
:1001F00000F096FD0820CB490870BAE0C7480078A7
:10020000082816DBC5480178C1480078C01E814225
:100210000FDAC448007806280BD0C34800780028BD
:1002200003D10621C14800F07BFD0620BD490870BE
:100230009FE0BA480178B6480078C01E814217DBBB
:10024000B6480078B2490978884211DAB348407854
:10025000B149097888420BDBB2480078012807D001
:100260000121B24800F05CFD0120AE49087080E039
:10027000AA480078A6490978884217DBA748007881
:10028000132813DAA5484078A349097888420DDB82
:10029000A4480078022809D00221A44800F040FDBB
:1002A000022000E044E09F49087062E09B4800782B
:1002B00013280FDB9948007815280BDA9948007845
:1002C000032807D00321994800F02AFD032095490F
:1002D00008704EE09148007815280BDB91480078B3
:1002E000042807D00421914800F01AFD04208D490C
:1002F00008703EE0894800788149097888420BDB24
:10030000864800787E490978884232D1834840780F
:100310007D49097888422CDA82480078072828D05D
:100320000721824800F0FCFC07207E49087020E08D
:10033000FF20F530FFF7D6FE7D4800780A280AD165
:100340000A217A4800F0ECFC0A2076490870002067
:10035000774908700DE0764800780B2809D10B2109
:10036000724800F0DDFC0B206E49087000207049D7
:1003700008707048007801287ED16FA000F011FB52
:10038000002820D00A21694800F0CAFC0A206549EB
:1003900008700020624908700A206549087002212F
:1003A0000920C00601F073FF0120FFF79BFE64A047
:1003B00002F032FA0120FFF795FE02210920C00663
:1003C00001F067FF5DE161A000F0EBFA00281AD0B0
:1003D0000B21564800F0A4FC0B2052490870002065
:1003E0004F4908700B205249087002210920C006AD
:1003F00001F04DFF57A002F00FFA02210920C006BC
:1004000001F047FF3DE156A000F0CBFA002810D0E4
:1004100001204349087002210920C00601F037FF7E
:1004200052A002F0F9F902210920C00601F031FFC3
:1004300027E1042251A1534802F09CF9002859D128
:100440005048807930380A2148434E49C9793039BB
:1004500040184D4908704B48807A30380A2148438B
:100460004849C97A30394018484908704548807B66
:1004700030380A21484300E00BE14249C97B30395A
:100480004018434908703F48807C30380A2148436F
:100490003C49C97C303940183E4908703948807D54
:1004A00030380A2148433749C97D303940183A4924
:1004B00008703448807E30380A2148433149C97E6B
:1004C000303940183549087000203549C870314826
:1004D000007808703048007848703048007888709C
:1004E000002001F08AF92A4800782E4988702748B0
:1004F000007859E092E00000E305002000000020B1
:10050000D505002074010020D6050020E802002057
:10051000D70500205C040020D8050020DF0500205E
:10052000D1050020D2050020D00500200038014070
:10053000D3050020D4050020BFAAB5C600000000E6
:10054000D2D1CDEAB3C9BFAAB5C62000B9D8B5C6C5
:1005500000000000D2D1CDEAB3C9B9D8B5C6200099
:10056000D5FDB3A3D4CBD0D000000000BFAACABC35
:10057000D5FDB3A3D4CBD0D020000000CAB1BCE4D9
:100580000000000020060020D9050020DA05002028
:10059000DB050020DC050020DD050020DE05002055
:1005A000E7050020EB05002048703A480078C87045
:1005B000002001F0BCF93849002001F089F93749E1
:1005C000002001F027FA3649002001F016F93549DC
:1005D000002001F0ACF93049002001F079F92F49F1
:1005E000002001F017FA02210920C00601F04FFE99
:1005F0002948807828494978274A12780092019141
:100600000290264883784278C17827A002F004F946
:1006100002210920C00601F03CFE32E02FA1314842
:1006200002F086F800282CD02FA12E4802F080F886
:10063000002805D12DA12B4802F07AF8002810D00F
:1006400000202B49087002210920C00601F01FFE7E
:1006500028A002F0E1F802210920C00601F019FEED
:100660000FE001202249087002210920C00601F094
:100670000EFE27A002F0D0F802210920C00601F0EA
:1006800008FEFF210131174802F047F800202649F3
:10069000087076E5D9050020DF050020E30500207D
:1006A000E7050020EB050020CAB1BCE4C9E8D6C3C9
:1006B000CDEAB3C92CCFD6D4DACAB1BCE4CAC725B7
:1006C00064C4EA2564D4C22564C8D52564B5E3258D
:1006D00064B7D62564C3EBA1A3200000CCECC6F818
:1006E0000000000020060020D2F50000D3EA000040
:1006F000D0050020BDABD4DAB9C8B5E7CAB1B6CED3
:10070000B6D4B5E7B3D8B3E4B5E7A1A320000000A1
:10071000B9C8B5E7CAB1B6CEB2BBB6D4B5E7B3D89F
:10072000B3E4B5E7A1A32000D4050020704700BFC3
:10073000FEE770477047704770B52649264800F0BD
:100740000CFC012818D125480068002807D1224850
:1007500000F0EAFA05460120204908600CE01E4836
:1007600000F0E2FA044600201C490860092C03D17D
:1007700029461B4802F050F870BD10B515491948BC
:1007800000F0EBFB01281FD1164800F0CDFAC4B2EF
:1007900015480078012812D1232C08D100201249D5
:1007A00008701249087001201149087007E00F48CD
:1007B00001780078401C0D4A10700E4844542A2CD1
:1007C00002D10120084908700249064800F0ECFBFC
:1007D00010BD00000501050000380140F0050020B3
:1007E000A429000800440040F5050020F40500207D
:1007F000D40500202006002000B589B0012188041E
:1008000000F058FE0121880300F062FE002206215C
:100810006A4801F048FD00220721684801F043FDC5
:10082000022168460171032141710021817101217A
:10083000C171C02000906946604801F0ADFCE12024
:1008400040020390002004900590069008900C2030
:10085000079003A95A4800F015F901225949584850
:1008600000F03CFB1B21684601720021417201210E
:10087000817202A801F0DAFE0121514800F099F9D5
:1008800009B000BD70B505460E4600240CE0295D98
:100890004B4800F045FA00BF8021494800F052FB68
:1008A0000028F9D0601CC4B2B442F0DB70BD00B5C2
:1008B00089B00121480400F0FDFD0121480400F049
:1008C00015FE02200090012168460171002181710E
:1008D0000321417169460920C00601F05DFC012237
:1008E00002210920C00601F0DEFC012203210920BB
:1008F000C00601F0D8FC0221684601710321417154
:10090000002181710121C1710C20009069460920EC
:10091000C00601F041FCE120000203900020049099
:100920000590069008900C20079003A9264800F037
:10093000A9F801222349244800F0D0FA1C21684676
:100940000172002141720121817202A801F06EFE44
:1009500001211D4800F02DF909B000BD10B5044675
:100960000BE02178184800F0DBF900BF8021164821
:1009700000F0E8FA0028F9D0641C20780028F0D1B3
:1009800010BD70B504460D46E1B20F4800F0C8F93D
:1009900000BF80210C4800F0D5FA0028F9D020468D
:1009A00070BD10B504462146084801F0D5FE002868
:1009B00001D1012010BD0020FCE700000004004828
:1009C00000380140050105000044004020060020D9
:1009D00000B585B00121080700F088FD012001F075
:1009E0009AFC012000F0ADFB00BF212000F020FBAD
:1009F0000028FAD0FF20013000F032FD7F20039064
:100A0000FF2004900020029002A800F062FE002166
:100A10006846C17101714171817101A9002000F026
:100A2000ECFE0121684681700621417003210170AE
:100A30001021C1706946002000F079FF012000F00C
:100A400015FD00F0B5FD05B000BD000010B5044671
:100A5000F648844209D10121880300F063FD00219A
:100A60000120800300F05EFD0BE0F148844208D1D4
:100A70000121480400F064FD00210120400400F041
:100A80005FFD10BDF0B589B005460E46002400207C
:100A9000089000BF00BF28684008400028606C68CC
:100AA00003210903204688430446B06804436C6070
:100AB0002C68E0480440F1687068084331690843D5
:100AC00004432C60AC680321090220468843044695
:100AD00070690443AC60684600F00AFCD348854264
:100AE00002D10698089001E0029808902868012138
:100AF000C903084209D0326851001923089A5A43A1
:100B0000104601F0EDFD074608E032689100192318
:100B1000089A5A43104601F0E3FD0746642138461F
:100B200001F0DEFD0401200964214843381A0790D2
:100B300028680121C90308420AD00799C90008465C
:100B40003230642101F0CCFD4007400F044309E03E
:100B50000799090108463230642101F0C1FD000700
:100B6000000F0443AC8109B0F0BD4B21C901016005
:100B7000002141608160C1600C210161002141615F
:100B8000704710B5002242680F2424021346A34385
:100B90001A464C680B6823438C682343CC68234374
:100BA0001A43426010BD0021016041608160C16054
:100BB0007047002904D0026801231A43026003E051
:100BC00002685208520002607047002A03D003688E
:100BD0000B43036002E003688B4303607047002906
:100BE00005D002680123DB031A43026004E00268B7
:100BF0000123DB039A4302607047002905D0826815
:100C00000123DB021A43826004E082680123DB02D5
:100C10009A4382607047002905D042680123DB04B3
:100C20001A43426004E042680123DB049A434260B5
:100C30007047002905D0426801239B041A43426093
:100C400004E0426801239B049A4342607047002AF3
:100C500003D043680B43436002E043688B43436027
:100C60007047002905D042680123DB031A43426024
:100C700004E042680123DB039A4342607047002985
:100C800005D042680123DB051A43426004E0426854
:100C90000123DB059A43426070474269120E120637
:100CA000426142690A4342617047028AFF231B0284
:100CB0001A400282028A0A4302827047002904D045
:100CC000026802231A43026003E0026802239A4387
:100CD00002607047826803231B059A438260826822
:100CE0000A4382607047002905D0426801231B0532
:100CF0001A43426004E0426801231B059A434260A4
:100D00007047426803235B059A43426042680A4386
:100D100042607047C1690122D2039143C1617047AB
:100D2000CA05D20D028570470146888CC005C00DEA
:100D3000704742681202120A426042680B061A4368
:100D400042607047002905D0026801235B031A4303
:100D5000026004E0026801235B039A43026070476B
:100D600002680123DB029A43026002680A430260C0
:100D70007047426810239A43426042680A434260C7
:100D80007047426820239A43426042680A434260A7
:100D90007047002905D0426801239B031A43426033
:100DA00004E0426801239B039A4342607047002994
:100DB00004D0826808231A43826003E08268082313
:100DC0009A4382607047028AD2B20282028A0B0280
:100DD0001A4302827047002904D0826820231A43F4
:100DE000826003E0826820239A4382607047002972
:100DF00004D0826810231A43826003E082681023C3
:100E00009A4382607047826807235B049A4382603A
:100E100082684B041A438260704742691202120AC8
:100E2000426142690B061A43426170470038014033
:100E300000440040F3E9FFFF826804239A43826084
:100E400082680A4382607047002904D082680223C6
:100E50001A43826003E0826802239A4382607047EB
:100E6000002905D0826801239B031A43826004E0B5
:100E7000826801239B039A43826070478268012342
:100E8000DB039A43826082680A438260704702688B
:100E90001F235B059A43026002684B051A430260F8
:100EA000704702681F231B049A43026002680B0408
:100EB0001A4302607047002A03D083680B438360A3
:100EC00002E083688B4383607047826801235B0381
:100ED0009A43826082680A4382607047F8B503468D
:100EE0000024002600960025002018460E04340E2B
:100EF000CEB200960127009EB7403D46022C01D19C
:100F0000001D02E0032C00D10830002A03D006683F
:100F10002E43066002E00668AE430660F8BD002A74
:100F200003D0038B0B43038302E0038B8B430383C8
:100F30007047826801231B039A43826082680A43D8
:100F40008260704702460020D3690B4201D0012025
:100F500000E0002070470162704770B502460B4602
:100F600000240021002500201E04350ED9B20126E0
:100F70008E403146012D02D11668314006E0022D27
:100F800002D15668314001E0966831401C0C0126C0
:100F9000A6403446D6693440002903D0002C01D045
:100FA000012000E0002070BD10B5002300220B0CD2
:100FB00001249C402246026210BD0000FD480068EA
:100FC00001210843FB49086008464068FA49084087
:100FD000F849486008460068F8490840F549086043
:100FE00008460068012189048843F24908600846E0
:100FF00040683F2109048843EE4948600846C06ABA
:1010000000090001C8620846006BFF215431884383
:10101000E84908630846406B4008400048630020E8
:10102000886070470021E34A9170114688707047CC
:1010300010B502460021002300205111002902D1E1
:10104000DC4C23680BE0012902D1DA4C236A06E06C
:10105000022902D1D74C636A01E0D64C636BD106FA
:10106000C90E01248C401C4201D0012000E0002068
:1010700010BD38B5002000900024002500BF1120CD
:10108000FFF7D6FF05460098401C00900521090295
:101090000098884201D0002DF1D01120FFF7C8FF41
:1010A000002801D0012400E00024204638BD01467C
:1010B0000020C04A1068F82302469A431046CA002E
:1010C0001043BC4A10607047002806D0B94909682F
:1010D00001221143B74A116005E0B6490968490881
:1010E0004900B44A1160704701460020B14A506B74
:1010F000F82302469A431046CA001043AD4A506393
:101100007047002806D0AB49496B01221143A94A18
:10111000516305E0A749496B49084900A54A516355
:101120007047002806D0A349496B04229143A14A85
:10113000516305E09F49496B042211439D4A516365
:1011400070479C49096A490849009A4A1162114648
:10115000096A04229143974A11621146096A0143C0
:10116000116270479349096A18229143914A1162AA
:101170001146096A014311627047002806D08D4963
:10118000496A012211438B4A516205E08949496A43
:1011900049084900874A51627047864A52683D2390
:1011A0001B049A43834B5A601A46526803460B430A
:1011B0001A43804B5A607047002807D07D49096860
:1011C0000122120611437B4A116006E07949096841
:1011D000012212069143774A1160704701460020B0
:1011E000744AD06A0009000102460A431046714A57
:1011F000D0627047002807D06E4909680122D204E6
:1012000011436C4A116006E06A4909680122D20460
:101210009143684A116070476649C871704701463A
:101220000020644A50688008800002460A43104645
:10123000604A506070475F4840680C210840704722
:10124000014600205B4A5068F02302469A4310464C
:1012500002460A431046574A506070470146002034
:10126000544A506807231B0202469A43104602461E
:101270000A4310464F4A506070474E494968012260
:10128000920391434B4A51601146496882B211431F
:10129000484A51601146096B92159143454A1163C2
:1012A0001146096B020C1143424A116370474149D0
:1012B000096B402291433F4A11631146096B014378
:1012C000116370473B49096B10229143394A1163FE
:1012D0001146096B0143116370473649096B890850
:1012E0008900344A11631146096B01431163704749
:1012F000FEB504460025002600200190009000273E
:101300002C4840680C2108400546002D04D0042DCF
:1013100005D0082D28D105E02948206027E028487D
:10132000206024E0234840680F21890408400646D5
:10133000204840680121090408400190B00C861C37
:101340000198002803D11F48704320600BE0194822
:10135000C06A0007000F401C00901948009901F076
:10136000BFF97043206002E01548206000BF00BF55
:1013700010484068F021084005462D091248475D95
:101380002068F84060600B48406807210902084067
:1013900005462D0A0C48475D6068F840A060054886
:1013A000006BFF2101310840884211D00748E060FE
:1013B0001CE00000001002400CB8FFF8FFFFF6FE32
:1013C00000127A0000093D00F6050020809FD5003C
:1013D00074484068012189030840884203D0A0680E
:1013E0004008E06002E0A0688008E0606D48006BA3
:1013F00040210840402802D06B48206102E00120D3
:10140000C00320616748006B10210840102802D0FB
:101410006648606101E0206860616248006B800797
:10142000800F02D1A068A06119E05E48006B8007C0
:10143000800F012802D12068A06110E05948006B9C
:101440008007800F022802D18003A06107E0554881
:10145000006B8007800F032801D15448A061FEBDB6
:101460005049096A01434F4A11627047002807D06A
:101470004C49096A0122D20311434A4A116206E02B
:101480004849096A0122D2039143464A11627047D2
:10149000002807D04349096A012212041143414A36
:1014A000116206E03F49096A0122120491433D4A54
:1014B00011627047002905D03A4A52690243394BFC
:1014C0005A6104E0374A52698243364B5A61704789
:1014D000002905D0334A92690243324B9A6104E0F5
:1014E000304A926982432F4B9A617047002905D098
:1014F0002C4AD26902432B4BDA6104E0294AD269B3
:101500008243284BDA617047002905D0254A926A48
:101510000243244B9A6204E0224A926A8243214B9E
:101520009A627047002905D01E4AD26802431D4BBB
:10153000DA6004E01B4AD26882431A4BDA607047D3
:10154000002905D0174A12690243164B1A6104E0BC
:10155000144A12698243134B1A617047002905D05F
:10156000104A527A02430F4B5A7204E00D4A527AE3
:1015700082430C4B5A7270470A48406A012109069F
:10158000084308494862704701460020054A9268AE
:101590000A4201D0012000E0002070470149887212
:1015A00070470000001002401280000000127A0014
:1015B00008B50022009200200021FE4A92682023F4
:1015C0001A4201D0012024E0CA22FA4B5A62532267
:1015D0005A621A46D268A0239A43F64BDA6000BFDB
:1015E000F44AD26820231A401146009A521C0092F5
:1015F0009B02009A9A4201D00029F1D0ED4AD268AC
:1016000020231A4201D0012000E00020FF22E94BF4
:101610005A6208BD08B50022009200200021E54A68
:10162000D26840231A421AD1421EE24BDA6000BF50
:10163000E04AD26840231A401146009A521C009298
:101640001B02009A9A4201D00029F1D0D94AD268EF
:1016500040231A4201D0012002E0002000E00120D6
:1016600008BD18B5002000900024CA20D149486266
:1016700053204862FFF7CEFF002800D11DE0002074
:10168000CC490860CC4848600846806800208860E3
:10169000CA4808610020C861C862C863C5494031B2
:1016A0004860C449C860C34940310860FFF780FF03
:1016B000002801D1002400E00124FF20BD49486238
:1016C000204618BDBB48C06880218843B949C8601E
:1016D000704730B504460025CA20B64948625320F9
:1016E0004862FFF797FF002800D117E0B1488068F3
:1016F00040218843AF4988600846806821680843D4
:10170000AC498860A068086108460069A18809049E
:101710000843A8490861FFF7D5FF0125FF20A54927
:101720004862284630BD002101607F214160FF21D1
:1017300081607047002803D0FF219E4A516204E077
:10174000CA219C4A516253215162704730B5044608
:101750000025CA209749486253204862FFF75AFF84
:10176000002800D111E0002C06D09248806810219A
:1017700008439049886005E08E48806810218843BE
:101780008C498860FFF79EFF0125FF208949486248
:10179000284630BDCA21874A516253215162002830
:1017A00006D01146896820221143824A916005E0E3
:1017B00080498968DF2211407E4A9160FF217D4A7D
:1017C000516270470146002204E0501CC2B2084634
:1017D0000A38C1B20A29F8DA1007000E0843704728
:1017E000014600BFF020084000110A23584302467A
:1017F0000807000F8018C0B27047F8B505460C46C0
:10180000002600200090002D09D16A488068402100
:10181000084200D002E00020E07000BF0DE0654803
:1018200080684021084204D02078FFF7D9FF06469F
:1018300002E00020E07000BF00BF002D0BD0207838
:101840000004617809020843A1780843E17809049B
:101850000843064610E02078FFF7B4FF07046078DD
:10186000FFF7B0FF00020743A078FFF7ABFF074385
:10187000E078000407433E46CA204E4948625320A0
:101880004862FFF7C7FE002801D1009015E04C48E0
:10189000304048490860FFF715FF4648806820211E
:1018A000084208D1FFF784FE002801D1009004E02F
:1018B0000120009001E001200090FF203D49486296
:1018C0000098F8BD0021C1700170417081707047AF
:1018D00070B506460C460025364800683849084071
:1018E00005463F2000042840000C20707F200002A5
:1018F0002840000A60706806400EA0700120800534
:101900002840000CE070002E0BD12078FFF768FF14
:1019100020706078FFF764FF6070A078FFF760FFC9
:10192000A07070BD00202349886A49687047F8B5E7
:1019300005460C46002600200090002D08D1607856
:1019400010210840102803D1607888430A30607065
:10195000002D00D108E06078FFF742FF0646A0782E
:10196000FFF73EFF064600BF002D0BD0E0780004D5
:10197000617809020843A1780843217849030843A4
:10198000064610E0E078FFF71DFF07046078FFF7D8
:1019900019FF00020743A078FFF714FF07432078E0
:1019A000400307433E46CA2002494862532048622A
:1019B00008E000000028004001210000FF007F0037
:1019C0007F7F7F00FFF726FE002801D1009015E001
:1019D000FE483040FE494860FFF774FEFC488068CE
:1019E0002021084208D1FFF7E3FD002801D1009033
:1019F00004E00120009001E001200090FF20F44964
:101A000048620098F8BD0121017081704170002189
:101A1000C170704770B506460C460025EC4840681A
:101A2000EA4908400546FF2000042840000CE07009
:101A30001F2000022840000A6070A806800EA070D7
:101A4000072040032840400B2070002E0DD1E07885
:101A5000FFF7C6FEE0706078FFF7C2FE6070A07806
:101A6000FFF7BEFEA0702078207070BDF8B5054667
:101A700014460026002D0DD1D5488068402108422B
:101A800000D002E00020E07000BFA068002800D174
:101A90001AE019E0CE4880684021084204D020783E
:101AA000FFF79EFE064602E00020E07000BFA0683F
:101AB000002804D1207BFFF793FE064604E0207B3C
:101AC000FFF78EFE064600BF002D12D020780004DE
:101AD000617809020843A1780843E17809040843C2
:101AE000217B09060843A16808436168084306464C
:101AF00019E02078FFF766FE07046078FFF762FEC2
:101B000000020743A078FFF75DFE0743E07800047A
:101B10000743207BFFF756FE00060743A0680743F4
:101B2000606807433E46CA20A9494862532048627C
:101B30000846C661FF204862F8BD0021C1700170EF
:101B40004170817081600121017300214160704703
:101B5000F8B506460F46144600259D48C5693F2046
:101B600000042840000C20707F2000022840000A5A
:101B700060706806400EA070012080052840000CAF
:101B8000E0703F2000062840000E207301208007EF
:101B90002840A0608F4828406060002E0FD1207838
:101BA000FFF71EFE20706078FFF71AFE6070A078C5
:101BB000FFF716FEA070207BFFF712FE2073F8BD22
:101BC00038B502460024009400230020CA24804D2A
:101BD0006C6253246C62002905D02C46A46814431F
:101BE000AC6001201CE07A4CA4689443784DAC6052
:101BF00000BF774CE468150A2C402346009C641C07
:101C000000940125AD03009CAC4201D0002BF0D024
:101C10006F4CE468150A2C4201D1002000E001203D
:101C2000FF246B4D6C6238BD30B503460020CA24DA
:101C3000674D6C6253246C6214060C432046644C5E
:101C400040346060FF246C6230BD01460020604A71
:101C5000403252685004400C7047CA225C4B5A62B2
:101C600053225A621A46926801239B049A43584BA6
:101C70009A601A46926803460B431A43544B9A6083
:101C8000FF225A6270475248806801218904084047
:101C90007047CA224E4B5A6253225A621A469268C1
:101CA00007231B059A434A4B9A601A4692680346DB
:101CB0000B431A43464B9A60FF225A627047CA216F
:101CC000434A516253215162002807D01146896866
:101CD0000122D20511433E4A916006E03C498968E1
:101CE0000122D20591433A4A9160FF21384A51625C
:101CF0007047CA21364A51625321516211468968A0
:101D00000122D2049143324A91601146896801430D
:101D10009160FF215162704770B503460020002496
:101D2000CA252B4E7562532575623546ED68B6138C
:101D300035420AD000E0641C254DED6801263604CA
:101D4000354202D03511AC42F5D1214DED68012666
:101D50003604354206D11D460D4315431C4EF5632E
:101D6000012000E00020FF25194E756270BD10B5FE
:101D70000A460021164B9B68174C23401946002A3F
:101D800004D00123DB020343194302E00B46034363
:101D90001946CA230E4C636253236362234699603B
:101DA000FF23636210BDF7B50C46154600260027D9
:101DB0000748006B0949084006460548406B03493F
:101DC000084007463F200004304009E03FFFFF0085
:101DD0000028004080808080F7F7FFFF7F7F7F0032
:101DE000000C20707F2000023040000A60707006F6
:101DF000400EA070012080053040000CE0700020F3
:101E0000E8701F2000023840000A6870B806800E93
:101E1000A870072040033840400B28700098002825
:101E200017D12078FFF7DCFC20706078FFF7D8FC32
:101E30006070A078FFF7D4FCA0706878FFF7D0FC42
:101E40006870A878FFF7CCFCA8702878FFF7C8FC6A
:101E50002870FEBDAD48806B7047002908D1AB4AA1
:101E60004032126843009A43A84B40331A6007E09F
:101E7000A64A4032126843001A43A44B40331A600A
:101E80007047002907D0A14A4032126802439F4B95
:101E900040331A6006E09D4A4032126882439B4BF1
:101EA00040331A6070479949403109680322D202D1
:101EB0009143964A4032116011460968014311600E
:101EC00070479249403109680722120291438F4AB4
:101ED00040321160114609680143116070478B4917
:101EE00040310968032252039143884A403211600D
:101EF00011460968014311607047002808D08349E2
:101F00004031096880221143804A4032116007E065
:101F10007E4940310968802291437C4A40321160F9
:101F20007047002809D07949403109680122D2035D
:101F30009143764A4032116008E0744940310968A3
:101F40000122D2031143714A40321160704708B533
:101F5000002200926D4A503200928200009BD218FB
:101F60000092009A116008BD08B50146002000905B
:101F70006648503000908800009A801800900098C1
:101F8000006808BD6149403109680122920491430B
:101F90005E4A403211601146096801431160704782
:101FA000F0B504460D4600270026CA20574948626E
:101FB000532048620846C0680821084209D000E062
:101FC000761C5248C0680821084202D04802864266
:101FD000F6D14E48C0680821084212D14B488068AB
:101FE000102108420BD1284620434849C862FFF718
:101FF000DFFA002801D1002704E0012702E00027D2
:1020000000E00027FF20414948623846F0BD10B586
:10201000CA223E4B5A6253225A62002911D01A46F4
:10202000926804240346A3431A43384B9A60374A04
:1020300040321268042303401A43344B40331A6081
:1020400010E0324A926804240346A3439A432F4B7C
:102050009A602E4A40321268042303409A432B4B65
:1020600040331A60FF22294B5A6210BD10B5014659
:1020700000200022254BDB68254C23401A461346DE
:102080000B4201D0012000E0002010BD802101435F
:10209000C903C90BC9431D4AD26880231A401143A2
:1020A0001A4AD160704770B5014600200022002313
:1020B000164C4034246804252C402246134CA46856
:1020C0000C408E0C0D46F540ED0B15402C4323467D
:1020D0000E4CE4680D092C402246002B04D0140459
:1020E000240C01D0012000E0002070BD10B50021BB
:1020F000010980220A4392B2D243044BDB68802458
:1021000023401A43014BDA6010BD00000028004054
:1021100078F9010010B504460920C006844209D1AF
:1021200001214804FFF7F0F9002101204004FFF7E6
:10213000EBF930E06D48844208D101210002FFF73D
:10214000E3F900212002FFF7DFF924E06848844228
:1021500008D101210002FFF7D7F900212002FFF783
:10216000D3F918E06348844209D101210805FFF73B
:10217000CBF9002101200005FFF7C6F90BE05E480E
:10218000844208D101218805FFF7BEF90021012012
:102190008005FFF7B9F910BDF0B50A46002100230C
:1021A000002400BF3DE001258D402B4615681D40F1
:1021B0002C469C4234D11579012D02D01579022D7F
:1021C00016D185684F000326BE40B543856055791A
:1021D0004E00B540866835438560858801268E406F
:1021E000B5438580858896798E40B6B23543858023
:1021F00005684F000326BE40B543056015794E00C3
:10220000B540066835430560C5684F000326BE40EB
:10221000B543C560D5794E00B540C6683543C56045
:10222000491C1029BFD3F0BD344901600021017160
:102230000221417100218171C171704708B50122ED
:1022400012040092009A0A430092009AC261C1618E
:10225000009AC261C2690092C269009208BD02463A
:102260000020138A0B4201D0012000E000207047BB
:102270000146088A704702460020938A0B4201D02B
:10228000012000E0002070470146888A7047816184
:10229000704701857047002A01D0816100E0018507
:1022A000704781827047F0B5002300244D07EE0E81
:1022B0001546B5402B46CD10AE0005462035AD592C
:1022C0004E07F70E0F26BE40B543CE10B6000746A8
:1022D0002037BD51CD10AE003D46AD591D432C46B3
:1022E000CD10AD003E467451F0BD00000004004822
:1022F00000080048000C004800140048FFFF0000E0
:1023000010B501210807FFF71BF900210120000784
:10231000FFF716F910BD002807D045490968FF22CC
:1023200001321143424A116006E041490968FF2227
:10233000013291433E4A11607047014600203C4AF9
:102340001068E02302469A43104602460A431046AC
:10235000374A10607047002806D0354909681022B6
:102360001143334A116005E0314909681022914355
:102370002F4A11607047002905D02D4A5268024348
:102380002B4B5A6004E02A4A52688243284B5A6019
:1023900070472849096904229143264A116101289E
:1023A00001D130BF00E020BF704710B502460020C9
:1023B0001F4B1868800880000346134318461C4BC7
:1023C00018601C4B1B69042423431A4C2361012908
:1023D00001D130BF00E020BF164B1B690424A3438A
:1023E000144C236110BD12480068042108431049B1
:1023F000086008460068022108430D4908600D483E
:102400000069042108430B49086130BF7047014649
:102410000020074A52680A4201D0012000E0002053
:1024200070470349096882001143014A11607047EF
:102430000070004000ED00E00CB50020019000901D
:10244000724800680121090408437049086000BF10
:102450006E48006801214904084000900198401C22
:1024600001900098002804D10521090201988842B2
:10247000EED16648006801214904084202D00120DB
:10248000009001E0002000900098012838D1112030
:102490005F4908605D4840685C494860084640689C
:1024A0004860084640683F2109048843574948600E
:1024B0000846406811210904084354494860084609
:1024C00000680121090608435049086000BF4F48D1
:1024D0000068012149060842F9D04C48406880084C
:1024E00080004A494860084640680221084347493D
:1024F000486000BF454840680C2108400828F9D1D1
:102500000CBD10B541480068012108433F490860EF
:10251000084640683F4908403C4948600846006812
:102520003D4908403949086008460068012189048E
:10253000884336490860084640683F2109048843BB
:10254000324948600846C06A00090001C86208466E
:10255000006BFF21543188432C4908630846406BC7
:1025600040084000486300208860FFF765FF10BD09
:10257000F8B50025002400260027244840680C21D7
:1025800008400546002D04D0042D06D0082D2AD180
:1025900007E022482249086029E0204820490860D5
:1025A00025E01A4840680F2189040840044617486E
:1025B00040680121090408400646A00C841C002E36
:1025C00004D118486043164908600BE00F48C06A00
:1025D0000007000F471C3946104800F081F860439F
:1025E0000F49086003E00D480D49086000BF00BFB7
:1025F00006484068F021084000090B490D5C084876
:102600000068E84006490860F8BD0000001002407C
:10261000002002400CB8FFF8FFFFF6FE00127A001F
:102620000806002000093D000C06002000218278E9
:10263000002A27D0274A03231B02D21803789B10B5
:102640009B00D15802789207D30EFF229A400B4686
:102650009343194642789207120E03789B07DB0ECC
:102660009A4011431B4A03231B02D21803789B1084
:102670009B00D1500278D306DB0E01229A40154B05
:102680001A6007E00278D306DB0E01229A40114B54
:1026900080331A607047002905D00F4A126902433F
:1026A0000D4B1A6104E00C4A126982430A4B1A610D
:1026B0007047042806D10949096904221143074AD1
:1026C000116105E00549096904229143034A11613A
:1026D0007047000000E100E000ED00E000E000E0F5
:1026E00030B50B46014600202022012409E00D46AA
:1026F000D5409D4205D31D469540491B2546954032
:1027000040191546521E002DF1DC30BDD2B201E059
:102710000270401C491EFBD270470022F6E710B53C
:1027200013460A4604461946FFF7F0FF204610BD3F
:1027300030B505462A460B4610781C78521C5B1CA7
:10274000002801D0A042F7D0002C03D0002802D0EE
:102750006D1CEFE7284630BD10B5002200E0521C8A
:10276000835C8C5CA34201D1002BF8D1D8B2E1B2DA
:10277000401A10BD30B505460020034600E05B1C42
:10278000934205D2EC5CC85C201A01D1002CF6D132
:1027900030BD0000064C0125064E05E02046E368EA
:1027A00007C82B4398471034B442F7D3FDF786FC93
:1027B000F8290008182A000870B58D180478401C04
:1027C000A207920F01D10278401C231106D1037891
:1027D000401C03E00678401C0E70491C521EF9D1C3
:1027E000002B14D002780C26401C8A1A34400C2C82
:1027F00003D0A401121B9B1C07E00478401C240298
:10280000F8E71478521C0C70491C5B1EF9D5A942DC
:10281000D4D3002070BD00000FB410B503A9044B41
:10282000044A029800F018F810BC08BC04B018471D
:10283000830900081C06002002E008C8121F08C116
:10284000002AFAD170477047002001E001C1121F31
:10285000002AFBD170470000FFB58DB0044600256B
:1028600096E0252832D10027641C4D4A01210097AB
:1028700023780846203B98400346134202D0074382
:10288000641CF5E720782E2817D104200743641C28
:1028900020782A280CD10E98641C02C800910E9052
:1028A0000BE000990A22514330394018641C009013
:1028B0002078014630390929F3D9207800286BD0D7
:1028C000642808D0692806D075281ED0109A0F9960
:1028D00090476D1C5BE00A200E99019001C90E9192
:1028E000002802DA40422D2102E0390504D52B21CF
:1028F0006A461172012103E0F90704D02021F7E7AD
:102900000BAE0B910DE00021FAE70A200E99019021
:1029100001C90E91F7E70199FFF7E2FE3031761E0B
:1029200031700028F7D103A8801B20300190780770
:1029300001D5009801E0012000900199884201DD55
:10294000401A00E000200027009006E002A8109A3C
:10295000C05D0F9990476D1C7F1C0B988742F5DB7B
:1029600004E0109A30200F9990476D1C0099481E82
:1029700000900029F5DC05E03078109A761C0F995C
:1029800090476D1C0199481E01900029F4DC641CDD
:102990002078002800D064E7284611B0F0BD000080
:1029A0000928010041542B53454E44534D533D31AA
:1029B000353236373031383638332C224261747430
:1029C000657279204E6F2E256420697320696E2010
:1029D00062616420636F6E646974696F6E2C20702D
:1029E0006C656173652066697820697420736F6F08
:1029F0006E21221A00000000182A000800000020A2
:102A000020060000B8270008782C000820060020C7
:102A100000050000482800080239060103140000E0
:102A200019022405010217001B021F0401011A3EAE
:102A3000014101C15D0545177120B00537373738B1
:102A400001111110493736363635353434343332C6
:102A5000323131302F2F2E2D2D2C2B2A29292827AA
:102A6000262524232221201F1E1D1C1B1A000019AD
:102A700018171514131211100F0D0C0B0A09070665
:102A800005040301003B3A3837363534323B222EF9
:102A900038522836313511334216342005000F0FD5
:102AA0000E3710050A0908073A113B100C03020201
:102AB00001010000003B3B3A01223901919D311098
:102AC000211910043B3B3B252409000101020203AC
:102AD0000303811457060707080809090A0A0B0CA3
:102AE0000C0D0D0E0F0F10101112121314141515DA
:102AF0001617171818191A1A1B1B1C1D1D1E1E1F2E
:102B00001F2021212222232324242526262727288B
:102B10002829292A2A2B2C2C2D2D2E2E2F2F3031EF
:102B200031323233330034353536361A1171116D86
:102B3000116A11682167116640090A0B0B0C0D0E12
:102B40000E0F621005151616175F215E200D1E1F51
:102B5000202021222324250025265820052A2B2B3E
:102B60002C5552305532345500053936373711015E
:102B70001300003E023712010224003B021413012D
:102B80000213001701388EA31212DA053412421014
:102B9000018300100101122755B7191A1211DE1511
:102BA000B715B615B735B63621B6290D3A290A3507
:102BB000B325B1390438053939000005196E196C8F
:102BC0002A066C3A09064907116F2152490A315504
:102BD000396A3A1F0E190F1A240F4910415D5966C0
:102BE0003910290E3965296619D119D249D33D57B3
:102BF00004BD9A042D8804111B4E0223032D2203C9
:102C00001D1C031DAA033C05353433336A033E2ED5
:102C1000A4034DA3035DA2034D6C036D9F031E0827
:102C20009F03100503020100391237361E329E033E
:102C300033002D330D139F031D9D033DD5036D9E62
:102C4000035D9F034DA00321015C043A003A8E030B
:102C50004D910331BFAD90032DCB030124011D60C5
:102C6000032204041D6103120960A0046CDC021A33
:082C70005116020000000000F3
:04000005080000C926
:00000001FF
