:020000040800F2
:10000000F0080020950100081505000817050008F4
:1000100000000000000000000000000000000000E0
:100020000000000000000000000000001B050008A8
:1000300000000000000000001D0500081F0500086A
:10004000A701000800000000A7010008A7010008A0
:10005000A7010008A7010008A7010008A7010008E0
:1000600000000000A7010008A7010008A701000880
:10007000A7010008A7010008A70100080000000070
:10008000A70100080000000000000000A701000810
:10009000A7010008A7010008A7010008A7010008A0
:1000A000A7010008A7010008A7010008270500080C
:1000B000A701000800F002F800F040F80CA030C8DA
:1000C000083824182D18A246671EAB4654465D46D4
:1000D000AC4201D100F032F87E460F3E0FCCB6465E
:1000E0000126334200D0FB1AA246AB4633431847E1
:1000F0006842000088420000103A02D378C878C1F4
:10010000FAD8520701D330C830C101D504680C6059
:10011000704700000023002400250026103A01D378
:1001200078C1FBD8520700D330C100D50B607047AF
:100130001FB5C046C0461FBD10B510BD03F006FF79
:100140001146FFF7F5FF00F0B3FD03F01EFF03B407
:10015000FFF7F2FF03BC03F051FF000070B5054646
:100160000C46164602E00FCC0FC5103E102EFAD2F8
:10017000082E02D303CC03C5083E042E07D301CCBE
:1001800001C5361F03E021782970641C6D1C761EA2
:10019000F9D270BD0748804707480047FEE7FEE7F1
:1001A000FEE7FEE7FEE7FEE704480549054A064B81
:1001B00070470000A3170008B5000008F0020020F7
:1001C000F0080020F0040020F004002000B593B0F7
:1001D0000121480201F004FE0121084601F0F2FD70
:1001E000B84802F053FCB8480090B848019000208D
:1001F0000290C020039000200490802005904000D1
:1002000006908000079020200890000209900020AE
:100210000A906946AB4802F085FC0121A94802F02A
:10022000ABFCFF200B90032108A80174417400214E
:10023000C1740BA90920C00601F09AF9A248403800
:1002400000F0E4FF0DA801F003F800200D9001215B
:1002500008A8017600200F90119012900DA99A48DD
:10026000403800F0E1FF072201219748403801F0B3
:100270008DF8072202219448403801F087F80722C0
:1002800004219148403801F081F8072208218E4866
:10029000403801F07BF8072210218B48403801F0EC
:1002A00075F8072220218848403801F06FF80722AE
:1002B00040218548403801F069F8072280218248B2
:1002C000403801F063F88048403801F095F801218A
:1002D0007D48403801F0BBF801217B48403800F0F0
:1002E000BFFF00BF7A497848403801F0CEF80028B7
:1002F000F8D07548403801F0A1F813B000BD0146B0
:10030000744848430013704770B5002600207249B6
:100310000860AFE000249AE020016C4940186E4963
:1003200009684900415A601C0001684A80186A4AFD
:1003300012685200805A81421DDA20016349401838
:10034000654909684900455A601C00015F49401829
:10035000614909684900405A21015C4A89185E4A8E
:10036000126852008852601C0001584940185A49CE
:10037000096849004552601C00015449401856491B
:1003800009684900415AA01C0001504A8018524A8D
:1003900012685200805A81421FDA601C00014B49EA
:1003A00040184D4909684900455AA01C00014749B9
:1003B0004018494909684900415A601C0001434AF4
:1003C0008018454A126852008152A01C00013F4922
:1003D0004018414909684900455220013B494018ED
:1003E0003D4909684900415A601C0001374A80189C
:1003F000394A12685200805A81421DDA200133497D
:100400004018354909684900455A601C00012F49C8
:100410004018314909684900415A20012B4A801887
:100420002D4A126852008152601C00012749401871
:100430002949096849004552601C000123494018B8
:10044000254909684900405A8619E01CC4B2152C98
:1004500000DC61E771007018182102F0E9FE1E4906
:10046000096849001D4A505200261B480068401C7C
:100470001949086018480068082800DA4AE770BD82
:1004800010B51148403800F0D9FFFFF73DFF0020BC
:100490001149086010E01049096849000F4A505A94
:1004A000FFF72DFF0C49096889000D4A50500A4892
:1004B0000068401C08490860074800680828EADB13
:1004C00010BD00000800024040240140B0000020A0
:1004D00001000001920C000000000020300200200A
:1004E000400200201CB50121880401F06BFC1B2098
:1004F0000090012168460171002181710321417141
:100500000021C1716946024801F032F81CBD0000AB
:1005100000040048704700BFFEE77047704710B501
:1005200000F0A8FC10BD10B50549064802F0EBFD2F
:10053000002804D0034802F0CDFC0349088010BD18
:10054000050105000038014004000020F0B585B029
:10055000FB49C86903F061FB04460022F94B03F034
:10056000B3F806460F46F649086803F056FB044602
:100570000022F44B03F0A8F832463B46019100906C
:1005800003F080F8F04AF14B0391029003F09CF8DD
:10059000EF4A03C2EA49C86903F03FFB0446002260
:1005A000E84B03F091F801910090E549486803F0A9
:1005B00034FB04460022E34B03F086F80646019B19
:1005C000009A03F05FF8E04AE04B0391029003F0D9
:1005D0007BF8E04A03C2DA49886803F01EFB06464E
:1005E000DD4ADE4B03F01CFB04460022D54B03F032
:1005F0006BF80022DA4B0391029003F065F8D94AB8
:1006000003C2CF49C86803F008FB0646D64AD74B59
:1006100003F006FB0022CB4B0391029003F054F849
:1006200004460022D24B03F04FF8D24A03C2C44919
:10063000086903F0F2FA0646CF4AD04B03F0F0FA0D
:100640000022C04B0391029003F03EF804460022C2
:10065000CB4B03F039F8CB4A03C205B0F0BD002103
:1006600005E0002200E0521C8242FCD3491C7D239D
:100670009B019942F5D37047F0B5F9B08822C24981
:1006800056A8FFF76BFDFF221132BF49883112A82F
:10069000FFF764FD00270EE0F80012A9081806C84D
:1006A0000F920E910A46B9490F9B03C903F0E0FC73
:1006B00000D83C467F1C222FEEDB601CC00012A934
:1006C000081806C8E0000592049112A9081806C887
:1006D00003920291084603A90EC902F0D3FF0991C3
:1006E0000890E00012A9081806C8A84801920091D5
:1006F0000CC80846019902F0C5FF05910490A100BD
:1007000056AA5158621C920056AB9A58881A03F0A8
:1007100084FA03910290059B049A03F081FA0791F1
:100720000690099B089A02F0CFFF0D910C90A10052
:1007300056AA505803F071FA0B910A900D9B0C9A2F
:1007400002F0A0FF0F910E9003F0E4F91190002742
:100750000EE0F80012A9081806C80F920E910A467A
:100760008B490F9B03C903F083FC00D83C467F1CD8
:10077000222FEEDB601CC00012A9081806C8E0009A
:100780000592049112A9081806C80392029108461E
:1007900003A90EC902F076FF09910890E00012A9A2
:1007A000081806C87A48019200910CC808460199B9
:1007B00002F068FF05910490A10056AA5158621CEE
:1007C000920056AB9A58881A03F027FA03910290C8
:1007D000059B049A03F024FA07910690099B089A56
:1007E00002F072FF0D910C90A10056AA505803F030
:1007F00014FA0B910A900D9B0C9A02F043FF0F9193
:100800000E9003F087F91090119A1099501A03F086
:10081000FCF90F910E905F485F490CC803C902F0C4
:1008200031FF00225D4B0B910A9003F0F9F90D9115
:100830000C900F9B0E9A02F047FF05460E460022D1
:10084000574B2846314603F013FC17D20022554B74
:100850002846314603F00CFC0DD25348018853481A
:1008600002F034FB7D200001FFF7F9FE09214F481B
:1008700002F02CFB02E000204D49087079B0F0BD79
:1008800010B500221346374903C903F0BFFB16D148
:100890004848007800280AD10121474801F0FBFBB5
:1008A0000121454801F01DFC012042490870032048
:1008B000424908811820414920398861BEE04048FA
:1008C0000088022803D03E48008804281DD1002259
:1008D0003C4B284903C903F0FDFB16D83548007886
:1008E00000280AD00021344801F0FBFB00213248E7
:1008F00001F0D1FB00202F49087002202F49088108
:1009000019202E492039886198E02D480088032855
:100910005AD12848007800280AD00021264801F042
:10092000E0FB0021244801F0B6FB002021490870BB
:1009300003202249088118202049203988617DE060
:100940004002002000408F40FCA9F1D24D62703F70
:100950002800002030000020D34D621058796C40F0
:1009600000003E4038000020029A081B9E966F400F
:100970000080494040000020FAEDEBC039916D4005
:1009800000804340480000204041000858000020FB
:100990006000002070000020680000200000594026
:1009A0000000544000004E40080000200038014084
:1009B0001300002012000020002C014020040048F9
:1009C0001000002000002640FE48007800280ED1CC
:1009D000FD4801684068FD4A11605060FC480168AC
:1009E0004068FC4A116050600120F64908700220FE
:1009F000F94908811920F849203988617D20C00013
:100A0000FFF72DFEF548007800280AD10121F448AF
:100A100001F041FB0121F24801F063FB0120EF49A5
:100A20000870F0480078002808D1EF4800880728AF
:100A300004D1FFF721FE0120EA49087010BDF0B58E
:100A400087B0E9480088082803D0E74800880628CE
:100A50007ED1E6480078002806D11920DE490881B9
:100A60000220DD4920398861E1494969E04A9269FB
:100A7000881A03F0D2F80446DE4ADF4B02F024FE67
:100A80000022DE4B0191009002F01EFE064600227D
:100A9000DB4B02F0F7FDDB4ADB4B0391029002F0E7
:100AA00013FE0591049003F06BF8D84908800846BE
:100AB0000088052814DB08460088232810DC0988F4
:100AC000481F03F0A2F80646D14AD24B03F0A8F81B
:100AD0000446CC4AD04B02F0E0FDD04A03C228E0E5
:100AE000CA480088052812DAC84909880522501A20
:100AF00003F08BF80646CA4ACA4B03F091F8044645
:100B0000C04AC54B02F0B3FDC44A03C211E0BF495D
:100B100009880846233803F078F80646C04AC14BD6
:100B200003F07EF80446C04AC04B02F0B6FDBB4A53
:100B300003C2BA48BE490CC803C903F0CBFA0BD8AC
:100B4000BC480078012808D10220A349088100E0B0
:100B50000BE00120A5490870A8E0B748006800280C
:100B6000FAD1B648B4490860A0E09F48008805283B
:100B70007DD19E480078002806D11A209649088128
:100B8000012095492039886199494969984A9269B3
:100B9000881A03F042F80446964A974B02F094FDF7
:100BA00006460022954B02F08FFD0022944B0191E6
:100BB000009002F067FD934A934B0391029002F07C
:100BC00083FD0591049002F0DBFF90490880084600
:100BD0000088052814DB08460088232810DC0988D3
:100BE000481F03F012F80446894A8A4B03F018F8AC
:100BF0000646844A884B02F050FD884A03C228E02A
:100C000082480088052812DA804909880522501A8E
:100C100002F0FBFF0446824A824B03F001F80646CD
:100C2000784A7D4B02F023FD7C4A03C211E07749EC
:100C300009880846233802F0E8FF0446784A794BD1
:100C400002F0EEFF0646784A784B02F026FD734A22
:100C500003C2724876490CC803C903F03BFA25D891
:100C600001205D490881614908701FE0FFE758488D
:100C7000007A3C280DDA72480078002809D11A2041
:100C80005549088101205449203988616C49087010
:100C90000CE04F48007A642808DB69480078012896
:100CA00004D14D49088100206549087007B0F0BDA6
:100CB00000F077FDFFF78AFA00F055F900F036FAF8
:100CC000FFF710FC7D21C9005E48006802F0A6FA1B
:100CD0000446601E5C49884201D901200CE0601E78
:100CE0005A4948610321081F00F0DEF800205749E7
:100CF0008861072008610020002801D000BFFEE7BE
:100D0000FFF7BEFBFFF722FCB3E051480088002844
:100D100006D04F4800883449088000204C4908809C
:100D20004C480078002806D14B4903C900F066F909
:100D30006420484908702C480088002818D02A48A8
:100D4000008808280BD028480088012807D02648AA
:100D50000088052803D024480088062809D1FFF719
:100D60006EFE3E48007800287FD000203B49087086
:100D70007BE01D4800880A2806D117490881112008
:100D800015492039886170E0174800880B2803D185
:100D90001B201149088168E0FFF772FD2F48007899
:100DA000002862D1084903C92D4A03C208480168D6
:100DB00040682C4A116050600120284908700020CA
:100DC000004951E01E00002040000020600000208B
:100DD0008002002070000020200400481200002043
:100DE000002C01401C000020100000201F000020EB
:100DF000400200207B14AE47E17A843F00408F40E0
:100E000000005940A4703D0AD7A3D83F1A00002023
:100E10003BDF4F8D976E923FD7232D40500000202F
:100E2000333333333333D33F8FC2F5285C0F2C4039
:100E300048000020130000200C00002040771B0019
:100E4000200000208C000020FFFFFF0000E000E0F9
:100E50000400002018000020280000201D000020B1
:100E600058000020680000200870FFF709FBFFF71A
:100E70006DFB4AE728480078002804D0264800780F
:100E8000401E254908702548006800280BD02348DB
:100E90000068401E2149086008460068002802D109
:100EA00001201F490870704710B5002819DA1D4A43
:100EB00003071B0F083B9B089B00D2588307DC0EDF
:100EC000FF23A3409A438B071B0E8407E40EA34025
:100ED0001A43144B0407240F083CA408A4001A5119
:100EE00018E0114A03231B02D21883089B00D25832
:100EF0008307DC0EFF23A3409A438B071B0E840756
:100F0000E40EA3401A43084B032424021B1984084F
:100F1000A4001A5110BD0000180000200C00002091
:100F2000130000201CED00E000E100E01CB50121F1
:100F3000480400F047FFFF2001300090022168467E
:100F4000017103214171002181710121C171694643
:100F50000920C00600F00CFB022208210920C0066F
:100F600000F08DFB1CBD10B5FFF7E0FF4B21C90061
:100F70001C48006802F052F9401E1B49088009888D
:100F8000491E8A0088180A2102F048F9174908808A
:100F90000121C80200F024FF0B2015490880002021
:100FA00048801148008848600020088188721148F4
:100FB00000F0ECFF602010490880012048800420E8
:100FC0008880022088810020C881FF2001300882AB
:100FD00000204882054800888860064801F092F8A1
:100FE00010BD00008C000020780000207A00002056
:100FF00060020020002C01406C020020F0B587B098
:1010000006460F4600210C460D4600221346304688
:10101000394603F02DF820D200223C4B30463946A9
:1010200002F0FEFD04460D46394A3A4B2046294659
:1010300002F0F6FD04460D460022374B20462946B5
:1010400002F042FB04460D4622462B46334903C9B3
:1010500002F018FB314A03C217E02D4A2D4B2046FF
:10106000294602F0DDFD04460D4600222A4B2046AB
:10107000294602F029FB04460D4622462B46274905
:1010800003C902F0F4FA254A03C200221346234999
:1010900003C902F0EDFF03D20020204A1060506027
:1010A0001F48006802F0B9FD059104901B480CC868
:1010B000049802F0DDFF05D81948006802F0ADFD84
:1010C000164A03C21648006802F0A7FD0391029079
:1010D00012480CC80020134902F0A2FD01910090B3
:1010E000039B029A02F0F0FA0591049002F048FD89
:1010F000C0B206900948016840680B4A1160506010
:1011000011460698087207B0F0BD00000000F0BF5D
:101110009A9999999999B93F0020AC408000002094
:1011200088000020000059408002002000B589B0EE
:101130000121880400F046FE0121880300F050FEE2
:10114000002206212E4800F09AFA002207212C489E
:1011500000F095FA022168460171032141710021D6
:1011600081710121C171C02000906946244800F0BE
:10117000FFF9E120400203900020049005900690C2
:1011800008900C20079003A91E4801F051FD012290
:101190001D491C4801F078FF1B216846017200219F
:1011A00041720121817202A801F0DEFF0121154880
:1011B00001F0D5FD09B000BD70B505460E4600240E
:1011C0000CE0295D0F4801F081FE00BF80210D4831
:1011D00001F08EFF0028F9D0601CC4B2B442F0DBED
:1011E00070BD10B504462146064801F06FFE00BFF1
:1011F0008021044801F07CFF0028F9D010BD0000D8
:1012000000040048003801400501050010B50446FF
:10121000B348844207D10121401500F00BFE0021A4
:10122000601500F007FE10BD10B50022C268AD4B7E
:101230001A400C7964030B6823438C682343CC6801
:1012400023430C6923434C6923431A43C26010BDF6
:101250000021016001718160C160016141617047DD
:10126000002904D0826801231A43826003E0826867
:1012700002231A4382607047002A03D003690B439C
:10128000036102E003698B4303617047002905D0C5
:10129000C2680123DB031A43C26004E0C268012371
:1012A000DB039A43C2607047002905D0C26801235E
:1012B0009B031A43C26004E0C26801239B039A4364
:1012C000C2607047002905D0C2680123DB051A43BC
:1012D000C26004E0C2680123DB059A43C260704724
:1012E0000B0413430362704710B50A460021C1681E
:1012F0001F24A4060B46A34319460B461343194665
:10130000C16010BD002905D0C26801239B051A43A6
:10131000C26004E0C26801239B059A43C260704723
:10132000002807D0704989680122D20511436E4A0E
:10133000916006E06C4989680122D20591436A4AAE
:1013400091607047002807D067498968012292059B
:101350001143654A916006E063498968012292055C
:101360009143614A91607047002807D05E498968BF
:101370000122120611435C4A916006E05A498968CD
:10138000012212069143584A9160704710B50B46EE
:101390000021846A1C43846200BF0C46144321462A
:1013A000416110BD002905D0C26801235B031A43C7
:1013B000C26004E0C26801235B039A43C2607047C5
:1013C000002905D0C26801231B041A43C26004E04F
:1013D000C26801231B049A43C2607047002905D0EC
:1013E000C26801231B031A43C26004E0C2680123E0
:1013F0001B039A43C260704730B5014600200022AB
:1014000000238C680125ED072C438C6000BF8C689D
:10141000E30FDB07521C0F242403A24201D0002B50
:10142000F5D18C68E40FE40701D1086C00E00020DE
:1014300030BD8168102211438160704781680422A9
:101440001143816070470146086C80B270470029E3
:1014500004D0C26801231A43C26003E0C268520884
:101460005200C2607047C26802239A43C260C268D9
:101470000A43C2607047002A03D043680B434360AD
:1014800002E043688B434360704730B5024600205A
:10149000002301242406214205D0946801252D064D
:1014A000AC43234600E013681C460C4201D00120E7
:1014B00000E0002030BD0160704710B502460020FA
:1014C000002354680C40234614680C4203D0002BC0
:1014D00001D0012000E0002010BD01607047000035
:1014E0000024014003D2FFFF0027014010B504464D
:1014F0000920C006844209D10121480400F08CFC77
:1015000000210120400400F087FC30E06D48844257
:1015100008D10121000200F07FFC0021200200F030
:101520007BFC24E06848844208D10121000200F0DD
:1015300073FC0021200200F06FFC18E06348844235
:1015400009D10121080500F067FC002101200005F8
:1015500000F062FC0BE05E48844208D1012188055E
:1015600000F05AFC00210120800500F055FC10BD60
:10157000F0B50A4600210023002400BF3DE001250C
:101580008D402B4615681D402C469C4234D1157960
:10159000012D02D01579022D16D185684F00032642
:1015A000BE40B543856055794E00B54086683543E9
:1015B0008560858801268E40B5438580858896792B
:1015C0008E40B6B23543858005684F000326BE4085
:1015D000B543056015794E00B54006683543056092
:1015E000C5684F000326BE40B543C560D5794E009F
:1015F000B540C6683543C560491C1029BFD3F0BD4E
:101600003449016000210171022141710021817181
:10161000C171704708B5012212040092009A0A4372
:101620000092009AC261C161009AC261C2690092CF
:10163000C269009208BD02460020138A0B4201D005
:10164000012000E0002070470146088A70470246EA
:101650000020938A0B4201D0012000E00020704757
:101660000146888A70478161704701857047002A6A
:1016700001D0816100E00185704781827047F0B53B
:10168000002300244D07EE0E1546B5402B46CD1025
:10169000AE0005462035AD594E07F70E0F26BE4069
:1016A000B543CE10B60007462037BD51CD10AE0071
:1016B0003D46AD591D432C46CD10AD003E467451FC
:1016C000F0BD00000004004800080048000C00487D
:1016D00000140048FFFF00000CB5002001900090AE
:1016E000724800680121090408437049086000BF7E
:1016F0006E48006801214904084000900198401C90
:1017000001900098002804D105210902019888421F
:10171000EED16648006801214904084202D0012048
:10172000009001E0002000900098012838D111209D
:101730005F4908605D4840685C4948600846406809
:101740004860084640683F2109048843574948607B
:101750000846406811210904084354494860084676
:1017600000680121090608435049086000BF4F483E
:101770000068012149060842F9D04C4840688008B9
:1017800080004A49486008464068022108434749AA
:10179000486000BF454840680C2108400828F9D13E
:1017A0000CBD10B541480068012108433F4908605D
:1017B000084640683F4908403C4948600846006880
:1017C0003D490840394908600846006801218904FC
:1017D000884336490860084640683F210904884329
:1017E000324948600846C06A00090001C8620846DC
:1017F000006BFF21543188432C4908630846406B35
:1018000040084000486300208860FFF765FF10BD76
:10181000F8B50025002400260027244840680C2144
:1018200008400546002D04D0042D06D0082D2AD1ED
:1018300007E022482249086029E020482049086042
:1018400025E01A4840680F218904084004461748DB
:1018500040680121090408400646A00C841C002EA3
:1018600004D118486043164908600BE00F48C06A6D
:101870000007000F471C3946104801F0CFFC6043B9
:101880000F49086003E00D480D49086000BF00BF24
:1018900006484068F021084000090B490D5C0848E3
:1018A0000068E84006490860F8BD000000100240EA
:1018B000002002400CB8FFF8FFFFF6FE00127A008D
:1018C0008C00002000093D0090000020FD480068C9
:1018D00001210843FB49086008464068FA4908406E
:1018E000F849486008460068F8490840F54908602A
:1018F00008460068012189048843F24908600846C7
:1019000040683F2109048843EE4948600846C06AA0
:1019100000090001C8620846006BFF21543188436A
:10192000E84908630846406B4008400048630020CF
:10193000886070470021E34A9170114688707047B3
:1019400010B502460021002300205111002902D1C8
:10195000DC4C23680BE0012902D1DA4C236A06E053
:10196000022902D1D74C636A01E0D64C636BD106E1
:10197000C90E01248C401C4201D0012000E000204F
:1019800010BD38B5002000900024002500BF1120B4
:10199000FFF7D6FF05460098401C0090052109027C
:1019A0000098884201D0002DF1D01120FFF7C8FF28
:1019B000002801D0012400E00024204638BD014663
:1019C0000020C04A1068F82302469A431046CA0015
:1019D0001043BC4A10607047002806D0B949096816
:1019E00001221143B74A116005E0B6490968490868
:1019F0004900B44A1160704701460020B14A506B5B
:101A0000F82302469A431046CA001043AD4A506379
:101A10007047002806D0AB49496B01221143A94AFF
:101A2000516305E0A749496B49084900A54A51633C
:101A30007047002806D0A349496B04229143A14A6C
:101A4000516305E09F49496B042211439D4A51634C
:101A500070479C49096A490849009A4A116211462F
:101A6000096A04229143974A11621146096A0143A7
:101A7000116270479349096A18229143914A116291
:101A80001146096A014311627047002806D08D494A
:101A9000496A012211438B4A516205E08949496A2A
:101AA00049084900874A51627047864A52683D2377
:101AB0001B049A43834B5A601A46526803460B43F1
:101AC0001A43804B5A607047002807D07D49096847
:101AD0000122120611437B4A116006E07949096828
:101AE000012212069143774A116070470146002097
:101AF000744AD06A0009000102460A431046714A3E
:101B0000D0627047002807D06E4909680122D204CC
:101B100011436C4A116006E06A4909680122D20447
:101B20009143684A116070476649C8717047014621
:101B30000020644A50688008800002460A4310462C
:101B4000604A506070475F4840680C210840704709
:101B5000014600205B4A5068F02302469A43104633
:101B600002460A431046574A50607047014600201B
:101B7000544A506807231B0202469A431046024605
:101B80000A4310464F4A506070474E494968012247
:101B9000920391434B4A51601146496882B2114306
:101BA000484A51601146096B92159143454A1163A9
:101BB0001146096B020C1143424A116370474149B7
:101BC000096B402291433F4A11631146096B01435F
:101BD000116370473B49096B10229143394A1163E5
:101BE0001146096B0143116370473649096B890837
:101BF0008900344A11631146096B01431163704730
:101C0000FEB5044600250026002001900090002724
:101C10002C4840680C2108400546002D04D0042DB6
:101C200005D0082D28D105E02948206027E0284864
:101C3000206024E0234840680F21890408400646BC
:101C4000204840680121090408400190B00C861C1E
:101C50000198002803D11F48704320600BE0194809
:101C6000C06A0007000F401C00901948009901F05D
:101C7000D5FA7043206002E01548206000BF00BF25
:101C800010484068F021084005462D091248475D7C
:101C90002068F84060600B4840680721090208404E
:101CA00005462D0A0C48475D6068F840A06005486D
:101CB000006BFF2101310840884211D00748E060E5
:101CC0001CE00000001002400CB8FFF8FFFFF6FE19
:101CD00000127A0000093D00A0000020809FD5007E
:101CE00074484068012189030840884203D0A068F5
:101CF0004008E06002E0A0688008E0606D48006B8A
:101D000040210840402802D06B48206102E00120B9
:101D1000C00320616748006B10210840102802D0E2
:101D20006648606101E0206860616248006B80077E
:101D3000800F02D1A068A06119E05E48006B8007A7
:101D4000800F012802D12068A06110E05948006B83
:101D50008007800F022802D18003A06107E0554868
:101D6000006B8007800F032801D15448A061FEBD9D
:101D70005049096A01434F4A11627047002807D051
:101D80004C49096A0122D20311434A4A116206E012
:101D90004849096A0122D2039143464A11627047B9
:101DA000002807D04349096A012212041143414A1D
:101DB000116206E03F49096A0122120491433D4A3B
:101DC00011627047002905D03A4A52690243394BE3
:101DD0005A6104E0374A52698243364B5A61704770
:101DE000002905D0334A92690243324B9A6104E0DC
:101DF000304A926982432F4B9A617047002905D07F
:101E00002C4AD26902432B4BDA6104E0294AD26999
:101E10008243284BDA617047002905D0254A926A2F
:101E20000243244B9A6204E0224A926A8243214B85
:101E30009A627047002905D01E4AD26802431D4BA2
:101E4000DA6004E01B4AD26882431A4BDA607047BA
:101E5000002905D0174A12690243164B1A6104E0A3
:101E6000144A12698243134B1A617047002905D046
:101E7000104A527A02430F4B5A7204E00D4A527ACA
:101E800082430C4B5A7270470A48406A0121090686
:101E9000084308494862704701460020054A926895
:101EA0000A4201D0012000E00020704701498872F9
:101EB00070470000001002401280000000127A00FB
:101EC00010B50446FE48844208D10121C014FFF732
:101ED000B1FF0021E014FFF7ADFF56E001208007BD
:101EE000844208D101210846FFF7B2FF00210120FA
:101EF000FFF7AEFF49E0F348844208D101210220F8
:101F0000FFF7A6FF00210220FFF7A2FF3DE0EE4809
:101F1000844208D101211020FFF79AFF00211020F0
:101F2000FFF796FF31E0E948844208D1012180158E
:101F3000FFF78EFF0021A015FFF78AFF25E0E44898
:101F4000844209D101210804FFF774FF0021012018
:101F50000004FFF76FFF18E0DE48844209D1012139
:101F60004804FFF767FF002101204004FFF762FFEC
:101F70000BE0D948844208D101218804FFF75AFFB9
:101F8000002101208004FFF755FF10BD00220288C8
:101F9000CB4B984206D001239B07984202D0C94BF5
:101FA000984203D1CD4B1A404B881A43C64B9842F6
:101FB00003D0CB4B1A400B891A4302804B68C36293
:101FC0000B880385BE4B984208D0C14B984205D080
:101FD000C04B984202D0C04B984201D18B7A038605
:101FE0000123838270470021C943416000210180A1
:101FF00001814180817270470185828270470A4663
:1020000000210188B54B19400B4613431946018046
:10201000704741627047C16270470146486A704725
:102020000146088D7047002904D0028802231A4314
:10203000028004E00288A94B6E331A400280704788
:10204000002904D0028804231A43028004E0028895
:10205000A24B6C331A4002807047002904D00288DA
:1020600080231A43028004E002889C4B103B1A40F4
:10207000028070470288994B68331A4002800288B8
:102080000A43028070470288954B1A4002800288FA
:102090000A4302807047002904D0028801231A43B2
:1020A000028004E002888D4B6F331A400280704733
:1020B0000A884B881A438B881A43CB881A430B89AA
:1020C0001A434B891A438B891A4344231A52704787
:1020D0000021018041808180C18001814181818115
:1020E0007047002907D04422125A0123DB031A4308
:1020F00044231A5205E04422125A53045B0C442232
:102100001352704770B5002400220023058C734ED3
:102110006F3635400584028C8388048B6F4D2C40CC
:10212000B51E2C400D882C43751E2A408D892A43EC
:102130004D882A43624DA84208D0654DA84205D07B
:10214000644DA84202D0644DA84212D1634D683557
:102150002A40CD892A43614D6C352A408D882A4317
:102160005E4D903D2B405F4D2B400D8A2B434D8A99
:102170002B43838004838D684563028470BD70B5F2
:10218000002400220023058C544E6036354005841F
:10219000028C8388048B544D2C40514D2C400D787B
:1021A0002D062D0C2C434D4D50352A408D892D0583
:1021B0002D0C2A434D882D052D0C2A43404DA84255
:1021C00019D1464D103D2A40CD892D052D0C2A43AD
:1021D000424D30352A408D882D052D0C2A43434D24
:1021E0002B40434D2B400D8AAD042D0C2B434D8AC3
:1021F000AD042D0C2B43838004838D68856302849A
:1022000070BD70B5002400220023058C334E903E33
:1022100035400584028C8388848B304D2C402F4DB3
:102220006D352C400D882C432E4D2A400D7B2D06FC
:102230002D0C2A438D782D062D0C2A43204DA842C3
:1022400017D12B4D2A408D7B2D062D0C2A43274D6F
:102250002A400D792D062D0C2A43264D2B40264D64
:102260002B400D8A2D052D0C2B434D8A2D052D0C51
:102270002B43838084838D68C563028470BD70B5F1
:10228000002200230024058C1A4E35400584038C5F
:102290008488828B144D2A40114D2A400D782D06DA
:1022A0002D0C2A43144D2B400D7B2D072D0C2B4359
:1022B0008D782D072D0C2B43014DA84224D11DE014
:1022C000002C0140000400400010004000200040AD
:1022D0000040014000440140004801408FFF0000E1
:1022E000FFFC0000FFFD0000FF8F0000FFFB00006F
:1022F000FFF70000FFEF0000FFDF0000FC4D2C4067
:102300000D8AAD052D0C2C43848082838D68056475
:10231000038470BD002101804180818081608181C2
:10232000C18101824182704770B5034600200024BC
:102330001846183001258D40ACB21D8CA5431D8474
:10234000002901D0082909D14D10281805687026E8
:10235000B54305600568154305600DE00D1F2D04AC
:102360006D0C2818056807263603B5430560056817
:102370001606360C3543056070BD416370478163B6
:102380007047C1637047016470470A460021018BA2
:10239000D84B19400B4613431946018370470A4630
:1023A0000021018BD44B194013061B0C19430183E8
:1023B00070470A460021818BCE4B19400B461343D0
:1023C0001946818370470A460021818BCA4B194008
:1023D00013061B0C194381837047002904D082889F
:1023E00001231A43828004E08288C24B6F331A4073
:1023F000828070470A460021018BBE4B683319402A
:102400000B4613431946018370470A460021018B8E
:10241000BA4B194013061B0C1943018370470A4637
:102420000021818BB34B683319400B461343194687
:10243000818370470A460021818BB04B19401306F7
:102440001B0C1943818370470A460021018BA94B5D
:102450006C3319400B4613431946018370470A46F3
:102460000021018BA64B194013061B0C1943018355
:1024700070470A460021818B9E4B6C3319400B46F6
:1024800013431946818370470A460021818B9C4B78
:10249000194013061B0C1943818370470A4600211B
:1024A000018B944B103B19400B4613431946018393
:1024B00070470A460021018B4904490C13061B0C86
:1024C0001943018370470A460021818B894B103BD9
:1024D00019400B4613431946818370470A46002171
:1024E000818B4904490C13061B0C194381837047E7
:1024F0000A460021018C7F4B6E3319400B46134373
:102500001946018470470A460021018C794B6833D3
:1025100019400B4613431946018470470A460021AF
:10252000018C744B5033194013051B0C1943018463
:1025300070470A460021018C6E4B103B1940130571
:102540001B0C1943018470470A460021018C6D4B16
:10255000194013061B0C1943018470470A460021D9
:10256000018C664B194013061B0C194301847047FC
:102570000A460021018C644B194013071B0C1943B8
:102580000184704702895B4B68331A4002810289DB
:102590000A430281704730B5002301248C40A3B266
:1025A000048C9C430484048C15468D40ADB22C43AE
:1025B000048430BD30B5002304248C40A3B2048CC5
:1025C0009C430484048C15468D40ADB22C43048496
:1025D00030BD002904D0828804231A43828004E09D
:1025E0008288444B6C331A4082807047828B474B01
:1025F0001A408283828B0B061B0C1A43828370471E
:10260000F8B50C460021002500260096068C404FA8
:102610003E400684818B058C2607360C00963D4E85
:1026200031401606360C31431E07360C31433A4E04
:10263000354001273F03009E3E4335438183058497
:10264000F8BD828B2B4B64331A408283828B0A4302
:1026500082837047F8B50C460021002500260096BD
:10266000068C244F903F3E400684818B058C2606C5
:10267000360C00961F4E833E31401E05360C164325
:102680003143264E3540FF270137009E3E433543F8
:1026900081830584F8BD028B1C4B1A400283028B98
:1026A0000B061B0C1A4302837047F8B50C46002139
:1026B000002500260096068C0E4F60373E400684AB
:1026C000018B058C2605360C0096124E31401E07F4
:1026D000360C31431606360C3143064E303E35403B
:1026E0001027009E3E43354301830584F8BD00005A
:1026F000FFBF00008FFF0000FF8F0000FFF700000A
:10270000FFFB0000FFFD0000FFDF0000FFF3000003
:10271000FFEF0000FF0C0000FF5F0000FFF500006E
:10272000028BD84B1A400283028B0A430283704704
:10273000F0B50C4600210025068CD24F0B373E40E9
:102740000684018B058CCF4EE73E31401E05360CCA
:1027500016433143CB4EB61C354001262643354344
:1027600001830584F0BD70B505460C46208800281D
:102770000AD12389A28861882846FFF7D9FFE1881A
:102780002846FFF7CDFF25E0208804280AD12389B9
:10279000A28861882846FFF788FFE1882846FFF76E
:1027A0007AFF17E0208808280AD12389A288618847
:1027B0002846FFF74FFFE1882846FFF742FF09E070
:1027C0002389A28861882846FFF71AFFE1882846F6
:1027D000FFF70CFF70BD0021018041800121818045
:1027E0000021C18001817047F8B505460C460026DE
:1027F00001276088002801D1022600E00026A08879
:10280000012801D1022700E001272088002814D1E7
:102810002389A28861882846FFF78AFFE188284635
:10282000FFF77EFF23893A4631462846FFF73DFFF2
:10283000E1882846FFF72FFF13E02389A2886188EB
:102840002846FFF732FFE1882846FFF724FF238957
:102850003A4631462846FFF76BFFE1882846FFF7E6
:102860005FFFF8BD0146486B70470146886B7047B3
:102870000146C86B70470146086C7047002A03D0B8
:1028800083890B43838102E083898B438381704773
:102890008182704702460020138A0B4201D001203A
:1028A00000E000207047CA430282704730B50246FC
:1028B000002000230024158A0D402B4695890D40E9
:1028C0002C46002B03D0002C01D0012000E000207A
:1028D00030BDCA430282704710B50B4613434824EB
:1028E000235210BD002A03D083890B43838102E069
:1028F00083898B4383817047002904D08288082311
:102900001A43828004E082885E4B1B1D1A4082803D
:10291000704701895B4A521D1140018170470A4688
:1029200000210189574B643B19400B46134319465C
:102930000181704730B504460D4629462046FFF711
:10294000EEFF208907210843208130BDF8B50446F9
:102950000D4616461F46602D06D13B4601223146E4
:102960002046FFF7A2FE05E03B4601223146204605
:10297000FFF7DEFE29462046FFF7D1FF2089072119
:1029800008432081F8BD30B50C4600210189C9B249
:102990001D062D0C154325432943018130BDFFB58C
:1029A00005460E46174600243A4631462846039B04
:1029B000FFF7E9FF2C893348401D044007200443FA
:1029C000304864380440702004432C81FFBDF0B5CA
:1029D00004460D4616461F463B46324629462046CB
:1029E000FFF7D1FF20890121890308432081F0BD31
:1029F0008288244B643B1A40828082880A4382800A
:102A0000704702891F4B5B1D1A40028102890A43ED
:102A10000281704702891B4B743B1A400281028974
:102A20000A4302817047F0B50C46002100250026BC
:102A30000189058B068C134F7F1D39400F462743B4
:102A40003946114F3D40FF2702373D430D4F9E3F12
:102A50003E401F053F0C17433E430181058306841A
:102A6000F0BD002904D0828880231A43828004E0CC
:102A70008288044B743B1A40828070475022115266
:102A800070470000F3FF0000FCFC00000168574A9B
:102A9000114001600021016041608160C1605449C2
:102AA000884208D15249083949680F221143504AD7
:102AB000083A516035E04E491431884208D14C49FA
:102AC00008394968F0221143494A083A516028E020
:102AD00047492831884209D14549083949680F22B8
:102AE00012021143424A083A51601AE040493C310F
:102AF000884209D13E49083949680F22120311431F
:102B00003B4A083A51600CE039495031884208D1BB
:102B10003749083949680F2212041143344A083AE8
:102B20005160704710B500220268324B1A400C6A9F
:102B30008B6823430C6923434C6923438C692343EB
:102B4000CC6923434C6A23438C6A23431A430260B3
:102B5000CB6843600B6883604B68C36010BD002185
:102B6000016041608160C160016141618161C16159
:102B70000162416281627047002904D0026801232A
:102B80001A43026003E00268184B1A400260704763
:102B9000416070470146486880B27047002A03D000
:102BA00003680B43036002E003688B4303607047D4
:102BB000014600200E4A083A12680A4201D001205C
:102BC00000E0002070470A49083948607047014614
:102BD0000020074A083A12680A4201D0012000E0AA
:102BE000002070470249083948607047FEFF000026
:102BF000080002400F80FFFF10B50446F6488442EB
:102C000009D101218803FFF715F900210120800374
:102C1000FFF710F90BE0F148844208D10121480484
:102C2000FFF716F9002101204004FFF711F910BD4C
:102C3000F0B589B005460E4600240020089000BF7C
:102C400000BF28684008400028606C680321090321
:102C5000204688430446B06804436C602C68E04812
:102C60000440F168706808433169084304432C60EC
:102C7000AC68032109022046884304467069044376
:102C8000AC606846FEF7BCFFD348854202D1069887
:102C9000089001E00298089028680121C9030842C1
:102CA00009D0326851001923089A5A43104600F09F
:102CB000B5FA074608E0326891001923089A5A438A
:102CC000104600F0ABFA07466421384600F0A6FA39
:102CD0000401200964214843381A0790286801211B
:102CE000C90308420AD00799C90008463230642156
:102CF00000F094FA4007400F044309E007990901E6
:102D000008463230642100F089FA0007000F0443BE
:102D1000AC8109B0F0BD4B21C901016000214160C7
:102D20008160C1600C21016100214161704710B5D3
:102D3000002242680F2424021346A3431A464C681B
:102D40000B6823438C682343CC6823431A434260B7
:102D500010BD0021016041608160C16070470029A1
:102D600004D0026801231A43026003E0026852089B
:102D7000520002607047002A03D003680B430360CF
:102D800002E003688B4303607047002905D00268A6
:102D90000123DB031A43026004E002680123DB0322
:102DA0009A4302607047002905D082680123DB0244
:102DB0001A43826004E082680123DB029A43826046
:102DC0007047002905D042680123DB041A434260A2
:102DD00004E042680123DB049A4342607047002903
:102DE00005D0426801239B041A43426004E0426814
:102DF00001239B049A4342607047002A03D0436832
:102E00000B43436002E043688B43436070470029F3
:102E100005D042680123DB031A43426004E04268A4
:102E20000123DB039A4342607047002905D04268C2
:102E30000123DB051A43426004E042680123DB05FD
:102E40009A43426070474269120E1206426142691B
:102E50000A4342617047028AFF231B021A40028222
:102E6000028A0A4302827047002904D002680223C2
:102E70001A43026003E0026802239A43026070472B
:102E8000826803231B059A43826082680A4382603A
:102E90007047002905D0426801231B051A43426090
:102EA00004E0426801231B059A4342607047426870
:102EB00003235B059A43426042680A4342607047BD
:102EC000C1690122D2039143C1617047CA05D20D85
:102ED000028570470146888CC005C00D7047426866
:102EE0001202120A426042680B061A43426070479F
:102EF000002905D0026801235B031A43026004E045
:102F0000026801235B039A43026070470268012351
:102F1000DB029A43026002680A430260704742681B
:102F200010239A43426042680A43426070474268F5
:102F300020239A43426042680A4342607047002956
:102F400005D0426801239B031A43426004E04268B3
:102F500001239B039A4342607047002904D0826892
:102F600008231A43826003E0826808239A43826040
:102F70007047028AD2B20282028A0B021A4302828C
:102F80007047002904D0826820231A43826003E03E
:102F9000826820239A4382607047002904D08268A7
:102FA00010231A43826003E0826810239A438260F0
:102FB0007047826807235B049A43826082684B04EF
:102FC0001A438260704742691202120A42614269E2
:102FD0000B061A434261704700380140004400402C
:102FE000F3E9FFFF826804239A43826082680A4300
:102FF00082607047002904D0826802231A438260ED
:1030000003E0826802239A4382607047002905D05A
:10301000826801239B031A43826004E082680123D3
:103020009B039A438260704782680123DB039A43C3
:10303000826082680A438260704702681F235B05D2
:103040009A43026002684B051A43026070470268A7
:103050001F231B049A43026002680B041A43026098
:103060007047002A03D083680B43836002E08368C3
:103070008B4383607047826801235B039A438260BD
:1030800082680A4382607047F8B503460024002630
:1030900000960025002018460E04340ECEB200968D
:1030A0000127009EB7403D46022C01D1001D02E0E1
:1030B000032C00D10830002A03D006682E43066096
:1030C00002E00668AE430660F8BD002A03D0038B19
:1030D0000B43038302E0038B8B43038370478268B7
:1030E00001231B039A43826082680A43826070470F
:1030F00002460020D3690B4201D0012000E00020ED
:1031000070470162704770B502460B4600240021EB
:10311000002500201E04350ED9B201268E4031460E
:10312000012D02D11668314006E0022D02D1566809
:10313000314001E0966831401C0C0126A64034461F
:10314000D6693440002903D0002C01D0012000E0D2
:10315000002070BD10B5002300220B0C01249C4000
:103160002246026210BD000000218278002A27D08A
:10317000274A03231B02D21803789B109B00D158C7
:1031800002789207D30EFF229A400B4693431946CA
:1031900042789207120E03789B07DB0E9A40114388
:1031A0001B4A03231B02D21803789B109B00D150AB
:1031B0000278D306DB0E01229A40154B1A6007E015
:1031C0000278D306DB0E01229A40114B80331A603D
:1031D0007047002905D00F4A126902430D4B1A614E
:1031E00004E00C4A126982430A4B1A6170470428B2
:1031F00006D10949096904221143074A116105E012
:103200000549096904229143034A1161704700008E
:1032100000E100E000ED00E000E000E00022030932
:103220008B422CD3030A8B4211D300239C464EE0E1
:1032300003460B433CD4002243088B4231D303099D
:103240008B421CD3030A8B4201D394463FE0C3094F
:103250008B4201D3CB01C01A524183098B4201D367
:103260008B01C01A524143098B4201D34B01C01A52
:10327000524103098B4201D30B01C01A5241C308CA
:103280008B4201D3CB00C01A524183088B4201D339
:103290008B00C01A524143088B4201D34B00C01A25
:1032A0005241411A00D201465241104670475DE03A
:1032B000CA0F00D04942031000D3404253400022BD
:1032C0009C4603098B422DD3030A8B4212D3FC2266
:1032D000890112BA030A8B420CD3890192118B42E5
:1032E00008D3890192118B4204D389013AD09211FB
:1032F00000E08909C3098B4201D3CB01C01A5241B6
:1033000083098B4201D38B01C01A524143098B427E
:1033100001D34B01C01A524103098B4201D30B0167
:10332000C01A5241C3088B4201D3CB00C01A52418C
:1033300083088B4201D38B00C01A5241D9D2430873
:103340008B4201D34B00C01A5241411A00D20146B0
:10335000634652415B10104601D34042002B00D51A
:103360004942704763465B1000D3404201B50020DC
:10337000C046C04602BD704770477047F0B50C4666
:10338000871A9C410D46861A9D4103D2C01BA1415C
:10339000D21963410D0D1F0DC64EEC1BAE435BD021
:1033A0007F057F0D0026002F50D02D05AC46A94388
:1033B000DD020123ED0A1B051D4320231B1B23D423
:1033C0001746E740381871412F46E740CC199D4019
:1033D0002818314661410C0D26D161449A4012D51E
:1033E0000023401C594152000DD140084000B24A10
:1033F0004B00934207D305204007081801D5511010
:1034000000E0AE493046F0BD6B00002A00D001223A
:103410009A18203C1F231B1B01D5002302E0E54026
:10342000281871410C0DD8D0012424050919C407AE
:10343000CD0740084908E40F28436144002CD6D04A
:103440000024401C61419A40D1D1CEE76A05520D5B
:10345000D9D1C90FC907D5E7974D4E00002801D033
:10346000012400E0002434195F00002A01D0012665
:1034700000E00026BE19924FAC420BD8AE4209D8EC
:10348000B44205D0BD00AC42BDD010461946F0BDD7
:103490009942FCD000203946F0BDF0B51FB40C466F
:1034A0000F46811A9F412546861A9D4106D2012565
:1034B000ED076F40401ABC4152187B41210D1E0D93
:1034C0008D1BAC467B4D8D437ED075056D0D7CD03C
:1034D0000D05AE46AC431B031B0B7A4D52429D417A
:1034E000202366469B1B14D31746F7403818002646
:1034F0000090744160462F460741E41900989D40B2
:103500002818664116D4714671189A4025D50123B2
:1035100020E093182A466A415200002B00D0521C2A
:10352000203E1E239B1B002B61DD3541EE17281822
:103530006641E8D5001876415B1C9A4000D3401CD8
:103540004B05F3181524E34010D3002B52D07146DD
:103550007118D30FC01802D3491C05B0F0BD012368
:10356000DB079A42F9D140084000F6E701225205F4
:10357000B21801D1002853D00123CC0ADB029943B1
:10358000891E002A08D1020C03D0020C0004103955
:1035900002E00246002020390023550B05D112021B
:1035A0000823550B01D152010D23550C01D11201F5
:1035B0001B1DD50C01D192009B1C150D01D1520091
:1035C0005B1C2025EE1A01E02CE022E00546F540C8
:1035D00015439840CA1AE10769181305C918002A4B
:1035E000BBDA032040070818C10FC9070FE0714676
:1035F0006118B2E7F10740080843711071444A00AE
:103600000CD001235B059A42A7D2C90FC90700203D
:10361000A3E74905490D25D1002001E00028F4D198
:1036200000219AE7244D6600002801D0012100E026
:10363000002171185F00002A01D0012600E0002659
:10364000BE191F4FA9420FD8AE420DD8B14207D0C4
:10365000BD00A94206D01946A802414010467CE7A9
:103660009C4201D0214678E70020394675E730B406
:103670000C465C4004D50124E407634030BC0CE7F1
:1036800030BC7BE630B40C465C4004D50124E40732
:10369000634030BC72E630BCFFE630B40124E4077E
:1036A00061400D465D4001D430BC67E6634030BCEC
:1036B000F3E60000FF0700000000E0FF0000F07FDD
:1036C0000000F87F0000F0FFF0B51FB4FA4F0E09BC
:1036D0001D09BC463E403D400C46B7435C408CB0A3
:1036E000002F7DD06746AF43FBD0002D79D0002E50
:1036F000FCD0E20F3243521BFF24A404121908929B
:10370000420DCD02C7020E981543420DD902114356
:10371000C202600305430143080C0195150CAC4639
:1037200005040B46AB430A9565462D04AA4309954B
:10373000E24D040A7D446419803C257806466E43B8
:1037400001247619E405A61B7543ED0CAD1C490B4D
:1037500069434919A401611A0E0CB6463604B143F7
:10376000694376466E43090C711889090591F9077A
:1037700000D0A100049101997F08CC0727434C0891
:10378000059DE10B4D432D0C294666467543029578
:103790000D4645432E46029D7D1BB44100950D46C6
:1037A0005D4301942C0C2F040D465543AE462D0C61
:1037B0003D43029503947546049C2D04641B0494B8
:1037C00006D2029C039D641C002675410395029459
:1037D00001AC70CC009F7D1BB4410904009501E051
:1037E0003BE15FE1079101940599A4086143090C4D
:1037F0000C464443650BE70464464C43A646640B01
:103800003C43039502947446049DE4042C1B0494E9
:1038100006D2029C039D641C002675410395029408
:1038200001AC70CC009F7D1BB44101940C465C43FD
:103830000095650FE7000C465443A646640F3C43D1
:10384000039502947446049DE4002C1B049406D254
:10385000029C039D641C002675410395029401ACF3
:1038600070CC009F7D1BB441AE09AF06049DC9001A
:10387000AD092F43049DA406AD060495079D34436E
:1038800069180791059DE10B4D432D0C29466646AD
:10389000754302950D4645432E46029D7D1BB4415E
:1038A00000950D465D4301942C0C2F040D465543A5
:1038B000AE462D0C3D43029503947546049C2D04A1
:1038C000641B049406D2029C039D641C002675416F
:1038D0000395029401AC70CC009F7D1BB441019410
:1038E0008C050694079C890A611800950791019C34
:1038F0000599A4086143090C0D464543680BEF0484
:103900000D46644665436C0B3C43049FED047D1BF0
:10391000AC4602D20025641C6841009E019D371B05
:1039200085410846584301950C46460FC50054434F
:10393000600F28436546E4002C1B02D20025401C82
:103940006E41019D3F1AB5412846BD0980062843B6
:103950008446A009BF064E020699A40676180743BE
:10396000079D002068410A99079019430020099B90
:1039700000906046FF1913434041E20F64003A4350
:10398000A4460446D71A8C41A04203D901200090D6
:1039900020463A46C70F941840416246D20F224350
:1039A000644664000494009CBE466400D71AA44692
:1039B000044602978C417746002F01D1A04204D9DA
:1039C0006046401C8446029A2046C40FA6469418BE
:1039D0004041049A0546D20F224364466400D31A3C
:1039E0008D417146002901D1A84202D9641C2846A4
:1039F0001A4610430122002800D01643610200201D
:103A0000079B044689195C410223002C02DB4918FC
:103A100013466441089DCE0A2D145D194B056705B8
:103A2000E10A2C050C1908993E43C9076140002B97
:103A300008D0934006D30022761C5141002B01D1BF
:103A4000760876001E4A002C45DB2346134242D0FE
:103A5000A24340D0304611B0F0BD0E4607184E418B
:103A6000184D7A42B5411AD30E9A1D4696185D41FB
:103A7000144A7642AA4112D3012252054D00D54282
:103A80000AD15C00D4420AD04B4002D592021143C5
:103A9000E1E749004908DEE7E10FC9070AE0002035
:103AA0000949D8E70648014212D008482146014397
:103AB000C01241400020CEE70000FF07A00B00002D
:103AC0000000F07F0000E0FF0000F87FFFFFFF7FB5
:103AD0000342E4D0E0E70123089A9B069A4205DC02
:103AE000032252078918C90FC907B4E705225207F4
:103AF0008918074A1143D2125140ACE7594050404F
:103B000010B54B40424059405040FFF7DDFD10BD1D
:103B1000FFFFFF7F30B50346CA02400D1043154D2D
:103B2000154C0A1502D02043002A06DBAA1A002AE7
:103B300012DDD040FF2A0BDC30BD5205520D01D101
:103B400040004008AA1A07D4D0404042FF2A01DDB5
:103B5000002030BD0028FCDD4A00002B01D00120F0
:103B600000E000201018054A9042F1D8C817C04361
:103B7000604030BD1E040000000000800000E0FF37
:103B8000CB02420D10B51A430B1504D00124E407F3
:103B90002243002B06DB0A4CE31A05D41046D8401A
:103BA000FF2B00DD002010BD4A00002800D00120BE
:103BB0001018044A9042F5D8C817C04310BD000041
:103BC0001E0400000000E0FF1F22030C02D10F22A0
:103BD000000402D0030E03D004E000200146704729
:103BE000083A0002030F01D1121F0001830F01D117
:103BF000921E8000002801DB521E40001205511861
:103C00004205C012411810467047C10FC90700D0C5
:103C10004042012292071143D6E701218907D3E7E9
:103C2000F0B5904C0D092646AC46AE430D465D40BE
:103C300087B0002E7ED01E092746B743FAD06746CC
:103C40002740ED0F3D43264075D024012142FBD093
:103C50007419FF25AD04641B0494CC02D90201231E
:103C60001B05C90A1943E40A1C430F012401030F71
:103C7000110F1C430F430501A10B88032D091601E9
:103C80008443A80B82039543BB0B9A0397433609E1
:103C9000BC46B20B9703BE430746574303972F46D4
:103CA00077430296BE46029F4619D71906967E4371
:103CB0000597039FF71B7646BE1B77463F0100978B
:103CC0000196039FB60BF619B646019E009FB604F7
:103CD000BF1902D37646761CB64676467600002F8C
:103CE00001D001273E4367467D43AE46029F2546ED
:103CF0007D4300956D00AE1975466D00AF196546A0
:103D00005D19069E03956E437546751BAE460D19EB
:103D1000059E02956E43009D5843761B75462D1AED
:103D20004A439646B21A00920195FA0606D07D09DA
:103D3000012201E076E072E0154300E07D09020A0D
:103D40000006002745197A417646300A360676196C
:103D50005041019A950D9202961945410098820DA5
:103D6000800280196A41594363465C43039D029B6C
:103D70006B435B1A1E1BB30EB601B6187B410A0BD0
:103D8000090589195A41230A240624184B418B42FC
:103D900000D2521C01204002824203D31521022688
:103DA000F64302E014210326F6432020451AAA40D8
:103DB0001F46AF40CB402046C84004991343091426
:103DC000711809055A1804993843C9075140AC4085
:103DD00009D001239C4006D30023401C5941002CEC
:103DE00001D140084000204B002A03DB1A4201D0D9
:103DF0008B4312D1012204989206904207DB0520E2
:103E00004007091819480143C012414004E003204B
:103E100040070818C10FC907002007B0F0BD0020F7
:103E2000E907FAE706180C464C4111487642A041D2
:103E300014D394181A465A410D48644290410DD348
:103E4000012049004005814208D35900814205D331
:103E5000E90F054AC90700201143DEE700200549A4
:103E6000DBE700000000FF070000F07FFFFFFF7F9F
:103E70000000E0FF0000F87FF8B5224C4E00069DE0
:103E8000A6420AD8A64201D1002806D15E00A64269
:103E900003D8A6420AD1002A08D00D2424042542C2
:103EA0002CD02946002000F02FF8F8BD0C461C430A
:103EB0000CD4994202D0EFF30080F8BD904202D0BA
:103EC000EFF30080F8BDEFF30080F8BD092424076C
:103ED000E5008B4206D0EFF30080A043591A06D2CA
:103EE000284304E0101A05D3EFF30080A04380F3C9
:103EF0000088F8BDEFF30080A043F1E7009500F0E3
:103F00001BF8F8BD0000E0FFCA0210D54A03520FAB
:103F100004D0C803C043012188407047054AEFF32D
:103F2000008108010009104380F3008870470020D9
:103F3000704700000000003010B500200249029ACE
:103F400000F029F810BD00000000F87F754600F071
:103F500051F8AE46050069465346C008C000854684
:103F600018B020B5FCF720F960BC00274908B64618
:103F70000026C0C5C0C5C0C5C0C5C0C5C0C5C0C578
:103F8000C0C5403D49008D4670470446C046C04606
:103F90002046FCF7DCF810B50C461107090F09297B
:103FA00004D00A290AD008290CD104E011460820BF
:103FB000FFF7AAFF06E0510606D501E0510601D53C
:103FC0000120C007214610BDD10607D5010109090E
:103FD000CC084907000E0006044309E0410F200207
:103FE0004907000A0143200E00061D22D14101436A
:103FF0000846E7E700487047900200200149182072
:10400000ABBEFEE7260002007047000070B5012538
:104010000C002D051C4310D4EC4206D4AC420AD44B
:10402000994200D070BD904270BDE94217D4EB4276
:1040300015D4994270BD894270BDEC4206D5AC42A0
:10404000F9D58B4200D070BD824270BD6D004C002E
:10405000EC4204D25C00EC4201D28B4270BD034CB6
:1040600030B4FFF709FF30BC70BD00BF1900120467
:1040700070B501250C002D051C4310D4EC4206D46C
:10408000AC420AD4994200D070BD904270BDE94262
:1040900017D4EB4215D4994270BD894270BDEC42F1
:1040A00006D5AC42F9D58B4200D070BD824270BDBE
:1040B0006D004C00EC4204D25C00EC4201D28B4219
:1040C00070BD034C30B4FFF7D7FE30BC70BD00BFED
:1040D0001900160470B501251C002D050C4310D4E1
:1040E000EC4206D4AC420AD48B4200D070BD82426E
:1040F00070BDEB4217D4E94215D48B4270BD9B4290
:1041000070BDEC4206D5AC42F9D5994200D070BDE5
:10411000904270BD6D005C00EC4204D24C00EC4259
:1041200001D2994270BD0FB4034C0CBC03BC30B437
:10413000FFF7A2FE30BC70BD19001604000000009D
:1041400064000000620000005F0000005C000000EE
:10415000590000005600000053000000500000000D
:104160004D0000004A00000047000000440000002D
:10417000410000003E0000003B000000380000004D
:1041800035000000320000002F0000002C0000006D
:10419000290000002600000023000000200000008D
:1041A0001D0000001A0000001700000014000000AD
:1041B000110000000E0000000B00000008000000CD
:1041C00005000000000000009A99999999992940EA
:1041D000986E1283C00A2940CBA145B6F3FD284052
:1041E000FED478E926F1284017D9CEF753E32840CA
:1041F0006DE7FBA9F1D22840C3F5285C8FC22840A7
:104200004E62105839B42840E17A14AE47A12840D4
:1042100075931804568E284008AC1C5A647B2840BD
:10422000D9CEF753E3652840AAF1D24D6250284019
:104230007B14AE47E13A2840D9CEF753E325284016
:104240008FC2F5285C0F2840B81E85EB51F8274037
:104250006F1283C0CAE127407D3F355EBAC927404F
:104260008B6CE7FBA9B127409A99999999992740B6
:104270001B2FDD240681274066666666666627403A
:10428000B29DEFA7C64B2740E3A59BC42030274033
:1042900037894160E51027408B6CE7FBA9F1264088
:1042A0007F6ABC7493D82640EC51B81E85AB26407B
:1042B000E5D022DBF97E264052B81E85EB51264020
:1042C000A245B6F3FD14264052B81E85EBD1254019
:1042D000000000000000254080807F7E7D7C7B7A8E
:1042E0007978777676757473727171706F6E6E6DA2
:1042F0006C6C6B6A6A696868676666656464636348
:1043000062616160605F5F5E5E5D5D5C5C5B5B5ACD
:104310005A5959585857575656555555545453533A
:1043200052525251515050504F4F4F4E4E4D4D4D95
:104330004C4C4C4B4B4B4A4A4A49494948484847E0
:10434000474747464646454545444444444343431E
:10435000434242424241414178430008000000206C
:10436000B0000000F800000828440008B000002059
:1043700040080000140100080000000000000000D8
:104380000600000000000000000000010000000026
:10439000000000000000000000000000000000001D
:1043A000000000000000000000000000000000000D
:1043B00000000000000000000000000000000000FD
:1043C00000000000000000000000000000000000ED
:1043D00000000000000000000000000000000000DD
:1043E00000000000000000000000000000000000CD
:1043F0000000000000000000000000000000594024
:1044000064000000006CDC020000000000000000FE
:10441000010203040607080900000000010203046A
:0844200001020304060708096C
:040000050800019559
:00000001FF
